:100000000C9456000C9460000C9460000C946000FA
:100010000C9460000C9460000C9460000C946000E0
:100020000C9460000C9460000C9460000C946000D0
:100030000C9460000C9460000C9460000C946000C0
:100040000C9460000C9460000C9460000C946000B0
:100050000C9460000C9460000C9460000C946000A0
:100060000C9460000C9460000C9460000C94600090
:100070000C9460000C9460000C9460000C94600080
:100080000C9460000C9460000C9460000C94600070
:100090000C9460000C9460000C9460000C94600060
:1000A0000C9460000C9460000C94600011241FBE3E
:1000B000CFEFDAE0DEBFCDBF0E9462000C9481007A
:1000C0000C94000080E88093610010926100569AC1
:1000D0005E9A2FEF33ED80E3215030408040E1F70E
:1000E00000C0000090E4569A8BB189278BB92FEF9E
:1000F00033ED80E3215030408040E1F700C0000044
:06010000F2CFF894FFCFDE
:00000001FF
